:020000040800F2
:1000000000000320953D00085D2C00086B2C0008C3
:10001000712C0008772C00087D2C000800000000DF
:10002000000000000000000000000000832C000819
:10003000912C0008000000009F2C0008AD2C000847
:10004000DD3D0008DD3D0008DD3D0008DD3D000828
:10005000DD3D0008DD3D0008C52C0008DD3D000841
:10006000DD3D0008DD3D0008DD3D0008DD3D000808
:10007000DD3D0008DD3D0008DD3D0008DD3D0008F8
:10008000DD3D0008DD3D0008DD3D0008DD3D0008E8
:10009000DD3D0008DD3D0008DD3D0008DD3D0008D8
:1000A000DD3D0008DD3D0008DD3D0008DD3D0008C8
:1000B000DD3D0008DD3D0008DD3D0008DD3D0008B8
:1000C000DD3D0008DD3D0008DD3D0008DD3D0008A8
:1000D000DD3D0008DD3D0008DD3D0008DD3D000898
:1000E000DD3D0008DD3D0008DD3D0008DD3D000888
:1000F000DD3D0008DD3D0008DD3D0008DD3D000878
:10010000DD3D0008DD3D0008DD3D0008DD3D000867
:10011000DD3D0008DD3D0008DD3D0008DD3D000857
:10012000DD3D0008DD3D0008DD3D0008DD3D000847
:10013000DD3D0008DD3D0008DD3D0008DD3D000837
:10014000DD3D0008DD3D0008DD3D0008DD3D000827
:10015000DD3D0008DD3D0008DD3D0008DD3D000817
:10016000DD3D0008DD3D0008DD3D0008DD3D000807
:10017000DD3D0008DD3D0008DD3D0008DD3D0008F7
:10018000DD3D0008DD3D0008DD3D0008DD3D0008E7
:10019000DD3D0008DD3D0008DD3D0008DD3D0008D7
:0C01A000DD3D0008DD3D0008DD3D0008ED
:1001AC000348044B834202D0034B03B118477047FA
:1001BC00600400206004002000000000054806498F
:1001CC000B1AD90F01EBA301491002D0034B03B159
:1001DC0018477047600400206004002000000000F5
:1001EC0010B5064C237843B9FFF7DAFF044B13B173
:1001FC000448AFF300800123237010BD600400207D
:10020C0000000000F43D000808B5044B1BB1044984
:10021C000448AFF30080BDE80840CFE700000000C1
:10022C0064040020F43D0008A3F5803A704700BF39
:10023C00154B002B08BF114B9D46FFF7F5FF002116
:10024C008B460F461148124A121A03F081FC0C4BD4
:10025C00002B00D098470B4B002B00D09847002068
:10026C00002104000D000B4803F000FC03F02EFCF1
:10027C002000290000F0DAFA03F0FEFB0000080071
:10028C0000000000000000000000000060040020DE
:10029C00A8040020A53A000880B483B000AF034640
:1002AC003960FB7197F90730002B0BDA3B68DAB237
:1002BC000C49FB7903F00F03043B1201D2B20B443F
:1002CC001A7609E03B68DAB2074997F90730120150
:1002DC00D2B20B4483F8002300BF0C37BD465DF847
:1002EC00047B704700ED00E000E100E080B582B0D7
:1002FC0000AF78607B68013BB3F1807F01D30123B1
:10030C000FE00A4A7B68013B53600F214FF0FF302E
:10031C00FFF7C2FF054B00229A60044B07221A60BC
:10032C00002318460837BD4680BD00BF10E000E032
:10033C0080B584B000AF08233B7200237B72072387
:10034C00BB723023FB7200233B7300237B7310239F
:10035C00BB7307F10803184602F0C2FC00233B7183
:10036C0000237B713B1D184602F092FD102002F019
:10037C00B4FD00BF1037BD4680BD80B58AB000AF5C
:10038C0078600023BB610023BB8307F110030022BC
:10039C001A609A800023FB734FF000037B620023EA
:1003AC003B6207F10F0301222321184602F0F4FDF2
:1003BC0007F1180306222821184602F0EDFDFB7BFD
:1003CC0003F04003002B26D100233B621FE03B6A65
:1003DC005B00013307F12802134413F8103C9BB265
:1003EC001B029AB23B6A5B0007F128010B4413F81D
:1003FC00103C9BB213449BB21AB23B6A5B0007F1F0
:10040C0028010B4423F8182C3B6A01333B623B6AEE
:10041C00022BDCD925E000233B621FE03B6A5B002A
:10042C0007F12802134413F8103C9BB21B029AB23A
:10043C003B6A5B00013307F128010B4413F8103CB5
:10044C009BB213449BB21AB23B6A5B0007F12801C2
:10045C000B4423F8182C3B6A01333B623B6A022B9A
:10046C00DCD9FB7B03F03003202B0CD0202B0DDCD4
:10047C00002B02D0102B03D008E0164B7B6205E05A
:10048C00154B7B6202E0154B7B6200BF00233B6285
:10049C0017E03B6A5B0007F12802134433F9183C60
:1004AC0007EE903AF8EEE76A3B6A9B007A681344D1
:1004BC0097ED097AC6EE877AC3ED007A3B6A013371
:1004CC003B623B6A022BE4D900BF00BF2837BD4614
:1004DC0080BD00BFEC91E442549264425C8F644155
:1004EC0080B58AB000AF002387F8273007F10C03E2
:1004FC001846FFF742FFD7ED037AFDEEE77AC7ED1A
:10050C00017A3B795BB2002BB8BF5B4287F826308F
:10051C00D7ED047AFDEEE77AC7ED017A3B795BB251
:10052C00002BB8BF5B4287F82530D7ED057AFDEE7E
:10053C00E77AC7ED017A3B795BB2002BB8BF5B421F
:10054C0087F82730D7ED037AFDEEE77AC7ED017A0D
:10055C003B795BB20F2B04DD4FF400512A4801F0BC
:10056C00B1FBD7ED037AFDEEE77AC7ED017A3B7963
:10057C005BB213F10F0F04DA4FF40051224801F073
:10058C0092FBD7ED047AFDEEE77AC7ED017A3B7961
:10059C005BB213F10F0F04DA4FF480411A4801F0EB
:1005AC0091FBD7ED047AFDEEE77AC7ED017A3B7942
:1005BC005BB20F2B04DD4FF48041134801F073FB49
:1005CC00D7ED057AFDEEE77AC7ED017A3B795BB2A0
:1005DC0013F10F0F04DA4FF4C0410B4801F072FB1A
:1005EC00D7ED057AFDEEE77AC7ED017A3B795BB280
:1005FC000F2B04DD4FF4C041034801F054FB00BF46
:10060C002837BD4680BD00BF0018024080B400AF43
:10061C0000231846BD465DF8047B704780B483B058
:10062C0000AF786000E000BF7B685A1E7A60002B38
:10063C00F9D100BF00BF0C37BD465DF8047B704795
:10064C0080B500AF0121402000F0E6FE0A4B4FF4CC
:10065C00C0421A60084B01221A71074B00229A7192
:10066C00054B03225A71044B0022DA7102490348EC
:10067C0001F000FA00BF80BD800400200018024089
:10068C0080B500AF0121012000F0C6FE01214FF41E
:10069C00804000F041FF184B00221A71164B0222C9
:1006AC00DA71154B01221A601349144801F0E2F972
:1006BC000021002002F050FA114B01221A60104B5D
:1006CC0000221A710E4B08225A710D4B01229A719D
:1006DC000B4802F05BF80B4B06221A70094B0122F7
:1006EC005A70084B01229A70064B0122DA700548A9
:1006FC0002F04EF900BF80BD8004002000000240D3
:10070C00A00400209C04002080B500AF4FF4C04131
:10071C000D4801F00DFB0D48FFF780FF0B48FFF76C
:10072C007DFF0A48FFF77AFF4FF4C041064801F0FD
:10073C00FFFA0648FFF772FF0448FFF76FFF034804
:10074C00FFF76CFF00BF80BD0018024000093D00A0
:10075C0080B500AF01214FF4003000F0BDFE012147
:10076C00082000F059FE1D4B02221A711B4B60220F
:10077C001A601A4B00229A71184B0022DA71174B2F
:10078C0002225A711549164801F074F90722052105
:10079C00134801F0DFFA07220621114801F0DAFABA
:1007AC00104B4FF416521A600E4B00229A810D4BCF
:1007BC000C225A810B4B00221A810A4B0022DA8040
:1007CC00084B00229A800749074801F099FB012148
:1007DC00054801F0ADFC00BF80BD00BF80040020C7
:1007EC00000C0240880400200044004080B584B016
:1007FC0000AF78607B68FB60FB681B789BB2194686
:10080C00084801F014FD0848FFF708FFFB680133A6
:10081C00FB60FB681B78002BEED100BF00BF1037CC
:10082C00BD4680BD00440040A086010080B58CB060
:10083C0000AFFFF705FFFFF767FF6FF07F40FFF793
:10084C0055FDFFF71DFFFFF783FFFFF771FD002339
:10085C007B75544A07F1080307CA83E8070007F1C0
:10086C0018031846FFF789FDD7ED067AFDEEE77AF7
:10087C00C7ED017A3B795BB2002B0BDAD7ED067A28
:10088C00FDEEE77AC7ED017A3B795BB2DBB25B42F6
:10089C00DBB208E0D7ED067AFDEEE77AC7ED017A18
:1008AC003B795BB2DBB2FB75D7ED077AFDEEE77AED
:1008BC00C7ED017A3B795BB2002B0BDAD7ED077AE7
:1008CC00FDEEE77AC7ED017A3B795BB2DBB25B42B6
:1008DC00DBB208E0D7ED077AFDEEE77AC7ED017AD7
:1008EC003B795BB2DBB2BB75D7ED087AFDEEE77AEC
:1008FC00C7ED017A3B795BB2002B0BDAD7ED087AA6
:10090C00FDEEE77AC7ED017A3B795BB2DBB25B4275
:10091C00DBB208E0D7ED087AFDEEE77AC7ED017A95
:10092C003B795BB2DBB27B751F4B1B78002B96D0EF
:10093C001D4B00221A704FF480411C4801F0F8F94D
:10094C000A211B4801F073FC1A48FFF767FE0D21C2
:10095C00174801F06CFC1748FFF760FEFB7DDBB21B
:10096C000A221549184603F0D5F8134B1B78BB72B5
:10097C00BB7DDBB20A221049184603F0CBF80E4BB4
:10098C001B78BB737B7DDBB20A220B49184603F044
:10099C00C1F8094B1B78BB7407F108031846FFF725
:1009AC0025FF5CE7103E00087C0400200018024084
:1009BC0000440040A08601009804002080B500AFE0
:1009CC00164BD3F88830154A43F47003C2F88830BC
:1009DC00134B1B68124A43F001031360104B0022A7
:1009EC009A600F4B1B680E4A23F0847323F48033F8
:1009FC0013600B4B0B4A5A60094B1B68084A23F4D3
:100A0C0080231360064B0022DA6000F08FF8034B52
:100A1C004FF000629A6000BF80BD00BF00ED00E0A7
:100A2C00003802401030002480B487B000AF00239F
:100A3C003B6100237B610223FB600023BB6002232C
:100A4C007B60354B9B6803F00C033B613B69082BC7
:100A5C0011D03B69082B44D83B69002B03D03B6970
:100A6C00042B04D03DE02D4B2D4A1A603DE02B4B5E
:100A7C002C4A1A6039E0284B5B689B0D03F001038C
:100A8C00BB60254B5B6803F03F037B60BB68002BAE
:100A9C000CD0244A7B68B2FBF3F31F4A52689209CC
:100AAC00C2F3080202FB03F37B610BE01C4A7B6878
:100ABC00B2FBF3F3184A52689209C2F3080202FB24
:100ACC0003F37B61144B5B681B0C03F003030133D2
:100ADC005B00FB607A69FB68B2FBF3F30F4A1360AF
:100AEC0003E00E4B0E4A1A6000BF0B4B9B681B09B0
:100AFC0003F00F030C4AD35CDBB23B61074B1A6863
:100B0C003B6922FA03F3054A136000BF1C37BD464C
:100B1C005DF8047B704700BF0038024004000020E1
:100B2C000024F40000127A000800002080B483B086
:100B3C0000AF00237B6000233B60434B1B68424AA1
:100B4C0043F480331360404B1B6803F400333B6069
:100B5C007B6801337B603B68002B03D17B68B3F56A
:100B6C00A04FF0D1384B1B6803F40033002B02D09C
:100B7C0001233B6001E000233B603B68012B02D169
:100B8C00314B324A5A60304B1B6C2F4A43F0805326
:100B9C0013642F4B1B682E4A43F4404313602A4BBB
:100BAC00294A9B689360284B9B68274A43F400436F
:100BBC009360254B9B68244A43F4A0539360224BCB
:100BCC001B68214A43F08073136000BF1E4B1B68E7
:100BDC0003F00073002BF9D01D4B1B681C4A43F427
:100BEC008033136000BF1A4B5B6803F48033002B17
:100BFC00F9D0174B1B68164A43F40033136000BF3F
:100C0C00134B5B6803F40033002BF9D0114B40F20B
:100C1C0005721A600C4B9B680B4A23F0030393601C
:100C2C00094B9B68084A43F00203936000BF064BD4
:100C3C009B6803F00C03082BF9D100BF00BF0C37E5
:100C4C00BD465DF8047B704700380240085A4007E7
:100C5C0000700040003C024080B400AF164B1B6893
:100C6C00154A43F001031360134B00229A60124B98
:100C7C001B68114A23F0A85323F4102313600E4B66
:100C8C000E4A5A600C4B0E4AC3F884200A4B0D4A8C
:100C9C00C3F88820084B1B68074A23F48023136091
:100CAC00054B0022DA60044B0022C3F88C2000BFF5
:100CBC00BD465DF8047B70470038024010300024BC
:100CCC00003000200030002480B483B000AF034615
:100CDC00FB71064B00221A70044AFB79137000BF9B
:100CEC000C37BD465DF8047B704700BF02380240EC
:100CFC0080B582B000AF00233B600023FB71002362
:100D0C00BB71312000F08EFD0346BB713B68013393
:100D1C003B603B68B3F5A04F02D0BB79002BF0D001
:100D2C00312000F07FFD0346002B02D00123FB7124
:100D3C0001E00023FB71FB7918460837BD4680BDE6
:100D4C0080B485B000AF0346FB710023FB600A4BF7
:100D5C001B68FB60FB6823F0F803FB60FB79DB008E
:100D6C00FA681343FB60044AFB68136000BF143736
:100D7C00BD465DF8047B70470038024080B483B0F8
:100D8C0000AF0346FB71044AFB79136000BF0C37BC
:100D9C00BD465DF8047B70470000474280B483B0C9
:100DAC0000AF0346FB710D4B00221A700B4B002257
:100DBC001A70FB79012B02D0042B04D007E0074BEF
:100DCC0001221A7003E0054B05221A7000BF00BF08
:100DDC000C37BD465DF8047B704700BF703802408D
:100DEC0080B483B000AF0346FB71044AFB791360F7
:100DFC0000BF0C37BD465DF8047B7047800E474240
:100E0C0080B485B000AFF860B9607A603B607B68F5
:100E1C009A01BB681A433B685B08013B1B041A43ED
:100E2C00FB681A43BB691B06044913434B6000BFA4
:100E3C001437BD465DF8047B704700BF0038024094
:100E4C0080B483B000AF0346FB71044AFB79136096
:100E5C0000BF0C37BD465DF8047B7047600047420D
:100E6C0080B485B000AFF860B9607A60FB689A0115
:100E7C00BB681B061A437B681B0705491343C1F863
:100E8C00843000BF1437BD465DF8047B704700BF4B
:100E9C000038024080B483B000AF0346FB71044AB3
:100EAC00FB79136000BF0C37BD465DF8047B7047BF
:100EBC006800474280B485B000AFF860B9607A60D2
:100ECC00FB689A01BB681B061A437B681B07054924
:100EDC001343C1F8883000BF1437BD465DF8047B5E
:100EEC00704700BF0038024080B483B000AF0346A7
:100EFC00FB71044AFB79136000BF0C37BD465DF8EB
:100F0C00047B70477000474280B483B000AF034647
:100F1C00FB71044AFB79136000BF0C37BD465DF8CA
:100F2C00047B70474C00474280B485B000AF7860BA
:100F3C0039600023FB600B4B9B68FB60FB6823F064
:100F4C00EC63FB607A683B681343FA681343FB60FD
:100F5C00044AFB68936000BF1437BD465DF8047B00
:100F6C00704700BF0038024080B485B000AF786095
:100F7C0039600023FB600B4B9B68FB60FB6823F024
:100F8C007843FB607A683B681343FA681343FB6051
:100F9C00044AFB68936000BF1437BD465DF8047BC0
:100FAC00704700BF0038024080B485B000AF786055
:100FBC000023FB60094B9B68FB60FB6823F0030379
:100FCC00FB60FA687B681343FB60044AFB68936020
:100FDC0000BF1437BD465DF8047B704700380240F3
:100FEC0080B400AF054B9B68DBB203F00C03DBB2A3
:100FFC001846BD465DF8047B704700BF00380240C0
:10100C0080B485B000AF78600023FB60094B9B680F
:10101C00FB60FB6823F0F003FB60FA687B6813430A
:10102C00FB60044AFB68936000BF1437BD465DF853
:10103C00047B70470038024080B485B000AF786004
:10104C000023FB60094B9B68FB60FB6823F4E053B7
:10105C00FB60FA687B681343FB60044AFB6893608F
:10106C0000BF1437BD465DF8047B70470038024062
:10107C0080B485B000AF78600023FB600A4B9B689E
:10108C00FB60FB6823F46043FB607B68DB00FA6861
:10109C001343FB60044AFB68936000BF1437BD46E2
:1010AC005DF8047B704700BF0038024080B489B003
:1010BC0000AF78600023BB6100237B610023FB61E0
:1010CC0002233B610023FB600223BB604A4B9B68FD
:1010DC0003F00C03BB61BB69082B11D0BB69082B57
:1010EC0044D8BB69002B03D0BB69042B04D03DE072
:1010FC007B68424A1A603DE07B68414A1A6039E0DD
:10110C003D4B5B689B0D03F00103FB603A4B5B6846
:10111C0003F03F03BB60FB68002B0CD0384ABB6864
:10112C00B2FBF3F3344A52689209C2F3080202FB91
:10113C0003F3FB610BE0314ABB68B2FBF3F32E4ABD
:10114C0052689209C2F3080202FB03F3FB612A4BBB
:10115C005B681B0C03F0030301335B003B61FA6912
:10116C003B69B2FBF3F27B681A6003E07B68234AAD
:10117C001A6000BF204B9B6803F0F003BB61BB6996
:10118C001B09BB611F4ABB6913441B78DBB27B6133
:10119C007B681A687B69DA407B685A60164B9B68DF
:1011AC0003F4E053BB61BB699B0ABB61154ABB6985
:1011BC0013441B78DBB27B617B685A687B69DA402D
:1011CC007B689A600C4B9B6803F46043BB61BB6902
:1011DC005B0BBB610B4ABB6913441B78DBB27B61B5
:1011EC007B685A687B69DA407B68DA6000BF243719
:1011FC00BD465DF8047B7047003802400024F400C3
:10120C0000127A001800002080B485B000AF78601E
:10121C000023FB607B6803F44073B3F5407F11D16E
:10122C000F4B9B68FB60FB6823F4F813FB607B6837
:10123C0023F0704323F44073FA681343FB60084AAD
:10124C00FB689360064B1A6F7B68C3F30B0304496E
:10125C0013430B6700BF1437BD465DF8047B704722
:10126C000038024080B483B000AF0346FB71044ADF
:10127C00FB79136000BF0C37BD465DF8047B7047EB
:10128C003C0E474280B483B000AF0346FB71044A66
:10129C00FB79136000BF0C37BD465DF8047B7047CB
:1012AC00400E474280B483B000AF7860044A7B683C
:1012BC00136000BF0C37BD465DF8047B704700BF60
:1012CC005C01474280B485B000AF78600023FB60BE
:1012DC000B4BD3F88C30FB60FB6823F01F03FB60D7
:1012EC007B68013BFA681343FB60054AFB68C2F854
:1012FC008C3000BF1437BD465DF8047B704700BFCF
:10130C000038024080B485B000AF78600023FB60E9
:10131C000B4BD3F88C30FB60FB6823F4F853FB6069
:10132C007B68013B1B02FA681343FB60044AFB68B1
:10133C00C2F88C3000BF1437BD465DF8047B704793
:10134C000038024080B485B000AF78600023FB60A9
:10135C000A4BD3F88C30FB60FB6823F44013FB6022
:10136C00FA687B681343FB60044AFB68C2F88C3054
:10137C0000BF1437BD465DF8047B7047003802404F
:10138C0080B485B000AF78600023FB600A4BD3F8C3
:10139C008C30FB60FB6823F44003FB60FA687B68CD
:1013AC001343FB60044AFB68C2F88C3000BF14374F
:1013BC00BD465DF8047B70470038024080B485B0B0
:1013CC0000AF78600023FB600A4BD3F88C30FB60D5
:1013DC00FB6823F44033FB60FA687B681343FB60C3
:1013EC00044AFB68C2F88C3000BF1437BD465DF868
:1013FC00047B70470038024080B483B000AF786043
:10140C00044A7B68136000BF0C37BD465DF8047B53
:10141C00704700BFE011474280B483B000AF7860E2
:10142C000B46FB70FB78002B06D00A4B1A6B094954
:10143C007B6813430B6306E0064B1A6B7B68DB433C
:10144C00044913400B6300BF0C37BD465DF8047BA9
:10145C00704700BF0038024080B483B000AF7860A2
:10146C000B46FB70FB78002B06D00A4B5A6B0949D4
:10147C007B6813434B6306E0064B5A6B7B68DB437C
:10148C00044913404B6300BF0C37BD465DF8047B29
:10149C00704700BF0038024080B483B000AF786062
:1014AC000B46FB70FB78002B06D00A4B9A6B094954
:1014BC007B6813438B6306E0064B9A6B7B68DB43BC
:1014CC00044913408B6300BF0C37BD465DF8047BA9
:1014DC00704700BF0038024080B483B000AF786022
:1014EC000B46FB70FB78002B06D00A4B1A6C094993
:1014FC007B6813430B6406E0064B1A6C7B68DB437A
:10150C00044913400B6400BF0C37BD465DF8047BE7
:10151C00704700BF0038024080B483B000AF7860E1
:10152C000B46FB70FB78002B06D00A4B5A6C094912
:10153C007B6813434B6406E0064B5A6C7B68DB43B9
:10154C00044913404B6400BF0C37BD465DF8047B67
:10155C00704700BF0038024080B483B000AF7860A1
:10156C000B46FB70FB78002B06D00A4B1A69094915
:10157C007B6813430B6106E0064B1A697B68DB43FF
:10158C00044913400B6100BF0C37BD465DF8047B6A
:10159C00704700BF0038024080B483B000AF786061
:1015AC000B46FB70FB78002B06D00A4B5A69094995
:1015BC007B6813434B6106E0064B5A697B68DB433F
:1015CC00044913404B6100BF0C37BD465DF8047BEA
:1015DC00704700BF0038024080B483B000AF786021
:1015EC000B46FB70FB78002B06D00A4B9A69094915
:1015FC007B6813438B6106E0064B9A697B68DB437F
:10160C00044913408B6100BF0C37BD465DF8047B69
:10161C00704700BF0038024080B483B000AF7860E0
:10162C000B46FB70FB78002B06D00A4B1A6A094953
:10163C007B6813430B6206E0064B1A6A7B68DB433C
:10164C00044913400B6200BF0C37BD465DF8047BA8
:10165C00704700BF0038024080B483B000AF7860A0
:10166C000B46FB70FB78002B06D00A4B5A6A0949D3
:10167C007B6813434B6206E0064B5A6A7B68DB437C
:10168C00044913404B6200BF0C37BD465DF8047B28
:10169C00704700BF0038024080B483B000AF786060
:1016AC000B46FB70FB78002B06D00A4B1A6D0949D0
:1016BC007B6813430B6506E0064B1A6D7B68DB43B6
:1016CC00044913400B6500BF0C37BD465DF8047B25
:1016DC00704700BF0038024080B483B000AF786020
:1016EC000B46FB70FB78002B06D00A4B5A6D094950
:1016FC007B6813434B6506E0064B5A6D7B68DB43F6
:10170C00044913404B6500BF0C37BD465DF8047BA4
:10171C00704700BF0038024080B483B000AF7860DF
:10172C000B46FB70FB78002B06D00A4B9A6D0949CF
:10173C007B6813438B6506E0064B9A6D7B68DB4335
:10174C00044913408B6500BF0C37BD465DF8047B24
:10175C00704700BF0038024080B483B000AF78609F
:10176C000B46FB70FB78002B06D00A4B1A6E09490E
:10177C007B6813430B6606E0064B1A6E7B68DB43F3
:10178C00044913400B6600BF0C37BD465DF8047B63
:10179C00704700BF0038024080B483B000AF78605F
:1017AC000B46FB70FB78002B06D00A4B5A6E09498E
:1017BC007B6813434B6606E0064B5A6E7B68DB4333
:1017CC00044913404B6600BF0C37BD465DF8047BE3
:1017DC00704700BF0038024080B483B000AF0346AE
:1017EC000A46FB711346BB71BB79002B08D00C4B1E
:1017FC001B78DAB20A49FB791343DBB20B7009E0B0
:10180C00074B1B78DAB2FB79DB43DBB2044913409C
:10181C00DBB20B7000BF0C37BD465DF8047B704724
:10182C000D38024080B487B000AF0346FB71002333
:10183C00FB6000237B610023FB74FB795B09DBB24B
:10184C00FB60FB68012B03D1124B1B687B6109E029
:10185C00FB68022B03D10F4B1B6F7B6102E00D4B1E
:10186C005B6F7B61FB7903F01F03FB607A69FB689C
:10187C0022FA03F303F00103002B02D00123FB74C3
:10188C0001E00023FB74FB7C18461C37BD465DF859
:10189C00047B70470038024080B400AF054B5B6F8F
:1018AC00044A43F08073536700BFBD465DF8047B68
:1018BC00704700BF0038024080B485B000AF0346CB
:1018CC00FB710023FB73094BDA68FB791340002B87
:1018DC0002D00123FB7301E00023FB73FB7B184652
:1018EC001437BD465DF8047B704700BF00380240DA
:1018FC0080B483B000AF0346FB71044AFB791370CC
:10190C0000BF0C37BD465DF8047B70470E380240B3
:10191C0080B582B000AF78607B684B4A934208D1A7
:10192C0001210120FFF718FE00210120FFF714FE12
:10193C0086E07B68454A934208D101210220FFF7DB
:10194C000BFE00210220FFF707FE79E07B68404A7E
:10195C00934208D101210420FFF7FEFD0021042051
:10196C00FFF7FAFD6CE07B683A4A934208D10121FB
:10197C000820FFF7F1FD00210820FFF7EDFD5FE0E7
:10198C007B68354A934208D101211020FFF7E4FD12
:10199C0000211020FFF7E0FD52E07B682F4A9342B4
:1019AC0008D101212020FFF7D7FD00212020FFF7CF
:1019BC00D3FD45E07B682A4A934208D1012140209F
:1019CC00FFF7CAFD00214020FFF7C6FD38E07B6819
:1019DC00244A934208D101218020FFF7BDFD00214C
:1019EC008020FFF7B9FD2BE07B681F4A93420AD198
:1019FC0001214FF48070FFF7AFFD00214FF4807090
:101A0C00FFF7AAFD1CE07B68184A93420AD101211A
:101A1C004FF40070FFF7A0FD00214FF40070FFF7AA
:101A2C009BFD0DE07B68124A934209D101214FF4D2
:101A3C008060FFF791FD00214FF48060FFF78CFD73
:101A4C0000BF0837BD4680BD0000024000040240C4
:101A5C0000080240000C024000100240001402403A
:101A6C0000180240001C02400020024000240240EA
:101A7C000028024080B487B000AF78603960002342
:101A8C007B6100233B610023FB6000237B6176E0DC
:101A9C0001227B6902FA03F33B613B681B683A69DC
:101AAC001340FB60FA683B699A4265D17B681A68FF
:101ABC007B695B00032101FA03F3DB431A407B686B
:101ACC001A607B681A683B681B7919467B695B0056
:101ADC0001FA03F31A437B681A603B681B79012BEC
:101AEC0003D03B681B79022B2ED17B689A687B69EB
:101AFC005B00032101FA03F3DB431A407B689A6015
:101B0C007B689A683B685B7919467B695B0001FAD4
:101B1C0003F31A437B689A607B685A687B699BB2B3
:101B2C00194601238B40DB431A407B685A607B6863
:101B3C005B683A68927911467A6992B201FA02F2BC
:101B4C0092B21A437B685A607B68DA687B699BB2F5
:101B5C005B00032101FA03F3DB431A407B68DA6074
:101B6C007B68DA683B68DB7919467B695B0001FAB4
:101B7C0003F31A437B68DA607B6901337B617B6911
:101B8C000F2B85D900BF00BF1C37BD465DF8047B09
:101B9C00704780B483B000AF78607B684FF6FF72FB
:101BAC001A607B6800221A717B6800225A717B686C
:101BBC0000229A717B680022DA7100BF0C37BD4697
:101BCC005DF8047B704780B485B000AF78600B463D
:101BDC007B804FF48033FB607A88FB681343FB6097
:101BEC00FA687B68DA617A887B68DA61FA687B6804
:101BFC00DA617B68DB69FB607B68DB69FB6000BFDB
:101C0C001437BD465DF8047B704780B485B000AFD7
:101C1C0078600B467B800023FB737B681A697B889A
:101C2C001340002B02D00123FB7301E00023FB7354
:101C3C00FB7B18461437BD465DF8047B704780B4B7
:101C4C0083B000AF78607B681B699BB218460C3779
:101C5C00BD465DF8047B704780B485B000AF7860FA
:101C6C000B467B800023FB737B685A697B8813408F
:101C7C00002B02D00123FB7301E00023FB73FB7BE1
:101C8C0018461437BD465DF8047B704780B483B0AA
:101C9C0000AF78607B685B699BB218460C37BD4619
:101CAC005DF8047B704780B483B000AF78600B465E
:101CBC007B807B687A881A8300BF0C37BD465DF841
:101CCC00047B704780B483B000AF78600B467B8098
:101CDC007B687A885A8300BF0C37BD465DF8047B5D
:101CEC00704780B483B000AF78600B467B8013469E
:101CFC007B707B78002B03D07B687A881A8302E098
:101D0C007B687A885A8300BF0C37BD465DF8047B2C
:101D1C00704780B483B000AF78600B467B807A88C4
:101D2C007B685A6100BF0C37BD465DF8047B704779
:101D3C0080B483B000AF78600B467B807B685A69B7
:101D4C007B885A407B685A6100BF0C37BD465DF8F2
:101D5C00047B704780B485B000AF78600B467B8005
:101D6C0013467B700023FB600023BB607A787B8872
:101D7C0003F007039B0002FA03F3FB607B88DB088C
:101D8C009BB21A467B68083253F822207B8803F0FA
:101D9C0007039B000F2101FA03F3DB437988C90881
:101DAC0089B2084602EA03017B6800F1080243F895
:101DBC0022107B88DB089BB21A467B68083253F8EA
:101DCC002230FA681343BB607B88DB089BB21A464F
:101DDC007B680832B96843F8221000BF1437BD463F
:101DEC005DF8047B704700BF80B582B000AF7860AF
:101DFC007B683B4A934208D101211020FFF72CFC51
:101E0C0000211020FFF728FC65E07B68354A9342DF
:101E1C000AD101214FF40030FFF7FEFB00214FF4F3
:101E2C000030FFF7F9FB56E07B682F4A93420AD14A
:101E3C0001214FF48020FFF7EFFB00214FF48020AD
:101E4C00FFF7EAFB47E07B68284A93420AD101215D
:101E5C004FF40020FFF7E0FB00214FF40020FFF7C8
:101E6C00DBFB38E07B68224A93420AD101214FF414
:101E7C008010FFF7D1FB00214FF48010FFF7CCFB53
:101E8C0029E07B681B4A934208D101212020FFF7EF
:101E9C00E3FB00212020FFF7DFFB1CE07B68164AE8
:101EAC0093420AD101214FF08040FFF7B5FB00218E
:101EBC004FF08040FFF7B0FB0DE07B680F4A934278
:101ECC0009D101214FF00040FFF7A6FB00214FF094
:101EDC000040FFF7A1FB00BF0837BD4680BD00BF27
:101EEC00001001400044004000480040004C0040FD
:101EFC00005000400014014000780040007C00407D
:101F0C0080B58AB000AF7860396000237B62002313
:101F1C003B620023FB610023BB617B681B8A9BB285
:101F2C007B627B6A23F440537B623B68DB881A46F6
:101F3C007B6A13437B627B6A9AB27B681A827B68EA
:101F4C009B899BB27B627B6A23F4B05323F00C0316
:101F5C007B623B689A883B681B8913439AB23B6847
:101F6C005B8913439BB21A467B6A13437B627B6A81
:101F7C009AB27B689A817B689B8A9BB27B627B6AF4
:101F8C0023F440737B623B689B891A467B6A13433C
:101F9C007B627B6A9AB27B689A8207F108031846C7
:101FAC00FFF784F87B68304A934203D07B682F4A52
:101FBC00934202D17B693B6201E03B693B627B68E7
:101FCC009B899BB21BB2002B0CDA3A6A13469B001E
:101FDC0013449A001A443B681B685B00B2FBF3F392
:101FEC00FB610BE03A6A13469B0013449A001A44B7
:101FFC003B681B689B00B2FBF3F3FB61FB691C4A5B
:10200C00A2FB03235B091B017B627B6A1B09642215
:10201C0002FB03F3FA69D31ABB617B689B899BB201
:10202C001BB2002B0CDABB69DB003233104AA2FB6B
:10203C0003235B0903F007037A6A13437B620BE00B
:10204C00BB691B0132330A4AA2FB03235B0903F071
:10205C000F037A6A13437B627B6A9AB27B681A819C
:10206C0000BF2837BD4680BD001001400014014060
:10207C001F85EB5180B483B000AF78607B684FF460
:10208C0016521A607B6800229A807B680022DA80E4
:10209C007B6800221A817B680C225A817B680022A3
:1020AC009A8100BF0C37BD465DF8047B704780B445
:1020BC0085B000AF786039600023FB607B681B8AB9
:1020CC009BB2FB60FB6823F47063FB603B681A886F
:1020DC003B685B8813439AB23B689B8813439AB264
:1020EC003B68DB8813439BB21A46FB681343FB60C7
:1020FC00FB689AB27B681A8200BF1437BD465DF844
:10210C00047B704780B483B000AF78607B6800229A
:10211C001A807B6800225A807B6800229A807B6838
:10212C000022DA8000BF0C37BD465DF8047B704797
:10213C0080B483B000AF78600B46FB70FB78002B4B
:10214C0008D07B689B899BB243F400539AB27B689E
:10215C009A8107E07B689B899BB223F400539AB267
:10216C007B689A8100BF0C37BD465DF8047B7047D5
:10217C0080B483B000AF78600B46FB707B681B8B20
:10218C009BB223F0FF039AB27B681A837B681B8B8C
:10219C009AB2FB789BB213439AB27B681A8300BF46
:1021AC000C37BD465DF8047B704780B483B000AF3C
:1021BC0078600B46FB70FB78002B0AD07B689B8900
:1021CC009BB26FEA43436FEA53439AB27B689A819E
:1021DC0007E07B689B899BB2C3F30E039AB27B68C2
:1021EC009A8100BF0C37BD465DF8047B704780B404
:1021FC0083B000AF78600B46FB70FB78002B08D0E7
:10220C007B689B8A9BB243F400639AB27B689A8288
:10221C0007E07B689B8A9BB223F400639AB27B68CD
:10222C009A8200BF0C37BD465DF8047B704780B4C2
:10223C0083B000AF78600B467B807B88C3F30803C8
:10224C009AB27B689A8000BF0C37BD465DF8047B60
:10225C00704780B483B000AF78607B689B889BB27A
:10226C00C3F308039BB218460C37BD465DF8047BDC
:10227C00704780B483B000AF78600B46FB707B680E
:10228C001B8A9BB223F00F039AB27B681A827B687D
:10229C001B8A9AB2FB789BB213439AB27B681A8260
:1022AC0000BF0C37BD465DF8047B704780B483B02B
:1022BC0000AF78600B46FB70FB78002B08D07B6876
:1022CC009B899BB243F002039AB27B689A8107E028
:1022DC007B689B899BB223F002039AB27B689A813C
:1022EC0000BF0C37BD465DF8047B704780B483B0EB
:1022FC0000AF78600B467B807B689B899BB223F494
:10230C0000639AB27B689A817B689B899AB27B88BE
:10231C0013439AB27B689A8100BF0C37BD465DF8B7
:10232C00047B704780B483B000AF78600B467B8031
:10233C007B681B8A9BB223F020039AB27B681A82BB
:10234C007B681B8A9AB27B8813439AB27B681A8289
:10235C0000BF0C37BD465DF8047B704780B483B07A
:10236C0000AF78600B46FB70FB78002B08D07B68C5
:10237C001B8A9BB243F480439AB27B681A8207E0B3
:10238C007B681B8A9BB223F480439AB27B681A82C7
:10239C0000BF0C37BD465DF8047B704780B483B03A
:1023AC0000AF78607B689B899BB243F001039AB2C3
:1023BC007B689A8100BF0C37BD465DF8047B704783
:1023CC0080B483B000AF78600B46FB70FB78002BB9
:1023DC0008D07B689B8A9BB243F008039AB27B6857
:1023EC009A8207E07B689B8A9BB223F008039AB21F
:1023FC007B689A8200BF0C37BD465DF8047B704742
:10240C0080B483B000AF78600B46FB707B681B8B8D
:10241C009BB2DBB29AB27B681A837B681B8B9AB235
:10242C00FB789BB21B029BB213439AB27B681A8354
:10243C0000BF0C37BD465DF8047B704780B483B099
:10244C0000AF78600B46FB70FB78002B08D07B68E4
:10245C009B8A9BB243F020039AB27B689A8207E076
:10246C007B689B8A9BB223F020039AB27B689A828A
:10247C0000BF0C37BD465DF8047B704780B483B059
:10248C0000AF78600B46FB70FB78002B08D07B68A4
:10249C009B8A9BB243F010039AB27B689A8207E046
:1024AC007B689B8A9BB223F010039AB27B689A825A
:1024BC0000BF0C37BD465DF8047B704780B483B019
:1024CC0000AF78600B467B807B689B8A9BB223F0C5
:1024DC0004039AB27B689A827B689B8A9AB27B8847
:1024EC0013439AB27B689A8200BF0C37BD465DF8E5
:1024FC00047B704780B483B000AF78600B46FB70F0
:10250C00FB78002B08D07B689B8A9BB243F00203BC
:10251C009AB27B689A8207E07B689B8A9BB223F015
:10252C0002039AB27B689A8200BF0C37BD465DF8F5
:10253C00047B704780B483B000AF78600B467B801F
:10254C0013467B707B78002B08D07B689B8A9AB2F1
:10255C007B8813439AB27B689A8209E07B689B8ADA
:10256C009AB27B88DB439BB213409AB27B689A8207
:10257C0000BF0C37BD465DF8047B704780B487B054
:10258C0000AF78600B467B8013467B7000233B6169
:10259C000023FB600023BB6000237B617B687B61B5
:1025AC007B88DBB25B09DBB23B617B8803F01F03EA
:1025BC00FB600122FB6802FA03F3BB603B69012B51
:1025CC0003D17B690C337B6109E03B69022B03D19E
:1025DC007B6910337B6102E07B6914337B617B7810
:1025EC00002B06D07B6919687B69BA680A431A60AC
:1025FC0006E07B691968BB68DA437B690A401A609C
:10260C0000BF1C37BD465DF8047B704780B485B0B5
:10261C0000AF78600B467B800023FB737B681B88C4
:10262C009AB27B8813409BB2002B02D00123FB7320
:10263C0001E00023FB73FB7B18461437BD465DF8A5
:10264C00047B704780B483B000AF78600B467B800E
:10265C007B88DB439AB27B681A8000BF0C37BD467F
:10266C005DF8047B704780B487B000AF78600B4690
:10267C007B800023FB6000237B610023BB60002375
:10268C00FB747B88DBB25B09DBB2BB607B8803F03D
:10269C001F037B6101227B6902FA03F37B61BB6838
:1026AC00012B07D17B689B899BB21A467B6913402F
:1026BC007B6111E0BB68022B07D17B681B8A9BB244
:1026CC001A467B6913407B6106E07B689B8A9BB250
:1026DC001A467B6913407B617B881B0A9BB2FB60AB
:1026EC000122FB6802FA03F3FB607B681B889BB238
:1026FC001A46FB681340FB607B69002B05D0FB6816
:10270C00002B02D00123FB7401E00023FB74FB7C43
:10271C0018461C37BD465DF8047B704780B485B005
:10272C0000AF78600B467B800023FB810023BB81CC
:10273C007B881B0AFB81FB89012202FA03F3BB8114
:10274C00BB89DB439AB27B681A8000BF1437BD4645
:10275C005DF8047B704700BF80B400AF094B0022CA
:10276C001A60084B00225A60064B00229A60054BF7
:10277C000022DA60034B044A5A6100BFBD465DF883
:10278C00047B7047003C0140FFFF7F0080B485B0A4
:10279C0000AF78600023FB60344BFB607B689B7957
:1027AC00002B4FD0314B1A687B681B68DB432F49D9
:1027BC0013400B602D4B5A687B681B68DB432B491D
:1027CC0013404B607B681B791A46FB681344FB6013
:1027DC00FB6819687B681A68FB680A431A60234B0C
:1027EC009A687B681B68DB43204913408B601F4B46
:1027FC00DA687B681B68DB431C491340CB607B6841
:10280C005B79102B0ED1194B9A687B681B681749A2
:10281C0013438B60154BDA687B681B6813491343B1
:10282C00CB601DE0114BFB607B685B791A46FB6843
:10283C001344FB60FB6819687B681A68FB680A43E1
:10284C001A600DE07B681B791A46FB681344FB6029
:10285C00FB6819687B681B68DA43FB680A401A60DE
:10286C0000BF1437BD465DF8047B7047003C014047
:10287C0080B483B000AF78607B6800221A607B68FC
:10288C0000221A717B680C225A717B6800229A71A3
:10289C0000BF0C37BD465DF8047B704780B483B035
:1028AC0000AF7860054B1A6904497B6813430B61D0
:1028BC0000BF0C37BD465DF8047B7047003C0140FF
:1028CC0080B485B000AF78600023FB73084B5A6965
:1028DC007B681340002B02D00123FB7301E0002323
:1028EC00FB73FB7B18461437BD465DF8047B7047C1
:1028FC00003C014080B483B000AF7860044A7B6830
:10290C00536100BF0C37BD465DF8047B704700BFB8
:10291C00003C014080B485B000AF78600023FB73AD
:10292C00084B5A697B681340002B02D00123FB73C0
:10293C0001E00023FB73FB7B18461437BD465DF8A2
:10294C00047B7047003C014080B483B000AF7860DA
:10295C00044A7B68536100BF0C37BD465DF8047BAD
:10296C00704700BF003C014080B483B000AF78607A
:10297C00064A7B6843F0BF6343F40033D36000BF67
:10298C000C37BD465DF8047B704700BF00ED00E0DE
:10299C0080B485B000AF78600023FB730023BB7359
:1029AC000F237B737B68DB78002B39D0274BDB68DC
:1029BC00DB431B0ADBB203F00703FB73FB7BC3F1A6
:1029CC000403BB737A7BFB7B42FA03F37B737B6858
:1029DC005B781A46BB7B02FA03F3FB737B689A782D
:1029EC007B7B1340DAB2FB7B1343FB73FB7B1B013A
:1029FC00FB73174A7B681B781344FA7B83F800231C
:102A0C007B681B7803F01F0311497A68127852090E
:102A1C00D2B21046012202FA03F341F820300FE043
:102A2C007B681B7803F01F0309497A6812785209F6
:102A3C00D2B2104601229A4000F1200341F8232023
:102A4C0000BF1437BD465DF8047B704700ED00E015
:102A5C0000E100E080B483B000AF786039603B687F
:102A6C0023F0604323F07F0304497A6813438B609F
:102A7C0000BF0C37BD465DF8047B704700ED00E0ED
:102A8C0080B483B000AF03460A46FB711346BB719A
:102A9C00BB79002B06D00A4B1A69FB790849134302
:102AAC000B6106E0064B1A69FB79DB4304491340C2
:102ABC000B6100BF0C37BD465DF8047B704700BF4F
:102ACC0000ED00E080B483B000AF78607B68042B2D
:102ADC0006D1094B1B68084A43F00403136005E058
:102AEC00054B1B68044A23F00403136000BF0C372A
:102AFC00BD465DF8047B704710E000E080B500AF88
:102B0C0001214FF48040FEF7A7FD00214FF48040D7
:102B1C00FEF7A2FD00BF80BD80B483B000AF0346BA
:102B2C00FB71044AFB79136000BF0C37BD465DF89E
:102B3C00047B70470038014080B483B000AF03467B
:102B4C00FB71044AFB79136000BF0C37BD465DF87E
:102B5C00047B70472000274280B485B000AF034649
:102B6C000A46FB711346BB710023FB60BB7903F073
:102B7C0003039B000F2202FA03F3FB60164ABB7996
:102B8C009B08DBB2023352F82320FB68DB4312486C
:102B9C00B9798908C9B21A408B1C40F823200E4A17
:102BAC00BB799B08DBB2023352F82320F979BB794D
:102BBC0003F003039B0001FA03F30748B979890872
:102BCC00C9B21A438B1C40F8232000BF1437BD46F2
:102BDC005DF8047B704700BF0038014080B483B0BF
:102BEC0000AF7860044A7B68136000BF0C37BD46A9
:102BFC005DF8047B704700BFDC00274280B483B0D3
:102C0C0000AF0346FB71044AFB79136000BF0C371D
:102C1C00BD465DF8047B70470004274280B483B046
:102C2C0000AF0023FB71094B1B6A03F48073002B6C
:102C3C0002D00123FB7101E00023FB71FB791846E4
:102C4C000C37BD465DF8047B704700BF003801406F
:102C5C0080B400AF00BFBD465DF8047B704780B404
:102C6C0000AFFEE780B400AFFEE780B400AFFEE734
:102C7C0080B400AFFEE780B400AF00BFBD465DF886
:102C8C00047B704780B400AF00BFBD465DF8047B89
:102C9C00704780B400AF00BFBD465DF8047B704741
:102CAC0080B400AF034B01221A7000BFBD465DF823
:102CBC00047B70477C04002080B500AF0120FFF737
:102CCC0029FE0346002B07D04FF400510348FFF7B1
:102CDC002FF80120FFF738FE00BF80BD001802401E
:102CEC0080B584B000AF78600023FB730023BB7306
:102CFC0000F08AF97B681A787B685B781343DAB248
:102D0C007B689B781343DAB27B68DB781343DAB2C7
:102D1C00FB7B1343DBB2FB737B681A797B685B79B3
:102D2C001343DAB27B689B791343DAB2BB7B134350
:102D3C00DBB2BB7307F10F0301222021184600F010
:102D4C00FBF807F10E0301222321184600F0F4F8DA
:102D5C0000BF1037BD4680BD80B582B000AFFB1DF3
:102D6C0001222421184600F017F9FB7963F07F0348
:102D7C00DBB2FB71FB1D01222421184600F0DCF8AC
:102D8C0000BF0837BD4680BD80B584B000AF786009
:102D9C000023FB730023BB7307F10F0301223021C7
:102DAC00184600F0F9F807F10E030122222118460B
:102DBC0000F0F2F8FB7B23F07F03DBB2FB73BB7BF1
:102DCC0023F02003DBB2BB737B681A787B685B78DB
:102DDC001343DAB2FB7B1343DBB2FB737B689A7849
:102DEC00BB7B1343DBB2BB7307F10F030122302112
:102DFC00184600F0A1F807F10E0301222221184613
:102E0C0000F09AF800BF1037BD4680BD80B584B085
:102E1C0000AF0346FB7107F10F0301222221184674
:102E2C0000F0BAF8FB7B03F07F03DBB2FB73FA7B99
:102E3C00FB791343DBB2FB7307F10F030122222151
:102E4C00184600F079F800BF1037BD4680BD80B53C
:102E5C0084B000AF0346FB7107F10F03012222215E
:102E6C00184600F099F8FB7B23F00803DBB2FB73E8
:102E7C00FA7BFB791343DBB2FB7307F10F030122DF
:102E8C002221184600F058F800BF1037BD4680BD0F
:102E9C0080B584B000AF786007F10F0301222121C7
:102EAC00184600F079F8FB7B23F03F03DBB2FB7391
:102EBC007B681A787B685B781343DAB2FB7B13432D
:102ECC00DBB2FB7307F10F0301222121184600F03E
:102EDC0033F800BF1037BD4680BD80B584B000AF5D
:102EEC000346FB7107F10F0301222421184600F061
:102EFC0053F8FB7B23F01003DBB2FB73FA7BFB79FB
:102F0C001343DBB2FB7307F10F0301222421184694
:102F1C0000F012F800BF1037BD4680BD80B582B0FE
:102F2C0000AFFB1D01222721184600F035F8FB7974
:102F3C0018460837BD4680BD80B582B000AF7860BA
:102F4C000B46FB7013463B803B88012B03D9FB7867
:102F5C0043F04003FB7002210E48FEF7B3FEFB78F2
:102F6C00184600F0EFF80AE07B681B78184600F072
:102F7C00E9F83B88013B3B807B6801337B603B88F5
:102F8C00002BF1D102210348FEF78DFE00BF08375C
:102F9C00BD4680BD0008024080B582B000AF7860AD
:102FAC000B46FB7013463B803B88012B04D9FB7806
:102FBC0063F03F03FB7003E0FB7863F07F03FB706F
:102FCC0002211048FEF77EFEFB78184600F0BAF896
:102FDC000CE0002000F0B6F803461A467B681A7025
:102FEC003B88013B3B807B6801337B603B88002B3B
:102FFC00EFD102210348FEF756FE00BF0837BD464D
:10300C0080BD00BF0008024080B588B000AF012130
:10301C004FF48010FEF780FA01212020FEF7FCF916
:10302C0001210420FEF7F8F901210120FEF7F4F943
:10303C0001210120FEF7F0F9052207213D48FEF79A
:10304C0089FE052208213B48FEF784FE0522092152
:10305C003848FEF77FFE02233B770023BB77022321
:10306C00FB7701237B778023BB6107F1180319469B
:10307C003048FEF7FFFC4FF40073BB6107F11803F7
:10308C0019462C48FEF7F6FC4FF48073BB6107F130
:10309C00180319462748FEF7EDFC274800F09AF86C
:1030AC000023BB804FF48273FB8000233B81002301
:1030BC007B810023BB814FF40073FB8118233B827F
:1030CC0000237B820723BB823B1D19461A4800F064
:1030DC00EFF80121184800F046FA0223BB610123E6
:1030EC003B770023BB7701237B770023FB7707F12A
:1030FC00180319461148FEF7BDFC02210F48FEF7D4
:10310C00D2FD0223BB6100233B770023FB7707F141
:10311C00180319460A48FEF7ADFC0423BB6107F1FE
:10312C00180319460648FEF7A5FC00BF2037BD461C
:10313C0080BD00BF00140240005001400008024056
:10314C000000024080B582B000AF0346FB711F4BFC
:10315C004FF480521A600BE01C4B1B685A1E1B4923
:10316C000A60002B04D1FDF751FA0346DBB229E0CB
:10317C000221174800F0EDFB0346002BECD0FB7945
:10318C009BB21946124800F028FB104B4FF48052AA
:10319C001A600BE00D4B1B685A1E0C490A60002B81
:1031AC0004D1FDF733FA0346DBB20BE001210848EA
:1031BC0000F0CFFB0346002BECD0054800F000FBE1
:1031CC000346DBB218460837BD4680BD28000020F8
:1031DC000050014080B582B000AF78607B682E4A09
:1031EC0093420AD101214FF48050FEF735FA0021A9
:1031FC004FF48050FEF730FA49E07B68274A93423F
:10320C000AD101214FF48040FEF706FA00214FF459
:10321C008040FEF701FA3AE07B68214A93420AD1DA
:10322C0001214FF40040FEF7F7F900214FF4004064
:10323C00FEF7F2F92BE07B681A4A93420AD101217E
:10324C004FF40050FEF708FA00214FF40050FEF73F
:10325C0003FA1CE07B68144A93420AD101214FF413
:10326C008010FEF7F9F900214FF48010FEF7F4F905
:10327C000DE07B680D4A934209D101214FF40010F7
:10328C00FEF7EAF900214FF40010FEF7E5F900BF54
:10329C000837BD4680BD00BF0030014000380040FB
:1032AC00003C0040003401400050014000540140FB
:1032BC0080B485B000AF786039600023FB817B68F7
:1032CC001B88FB81FB8903F44153FB813B681A8803
:1032DC003B685B8813439AB23B689B8813439AB252
:1032EC003B68DB8813439AB23B681B8913439AB241
:1032FC003B685B8913439AB23B689B8913439AB230
:10330C003B68DB8913439AB2FB891343FB817B68CF
:10331C00FA891A807B689B8B9BB223F400639AB268
:10332C007B689A833B681A8A7B681A8200BF1437C1
:10333C00BD465DF8047B704780B48BB000AF7860FD
:10334C00396000237B830223FB840023BB8401238D
:10335C007B840023FB6100237B6100233B61002302
:10336C00FB600023BB607B689B8B9BB223F47B636D
:10337C0023F00F039AB27B689A837B6802221A842B
:10338C007B689B8B7B833B689B68022B04D100235F
:10339C00BB840223FB846DE03B689B88002B02D12D
:1033AC0001237B8401E002237B844B4B9B6803F459
:1033BC000003002B05D0484B9B68474A23F40003BD
:1033CC009360454BD3F884309B09C3F30803FB602F
:1033DC00414BD3F884301B0F03F00703BB603E4B0B
:1033EC005B6803F03F033B613C4A3B69B2FBF3F380
:1033FC00FA6802FB03F2BB68B2FBF3F37B613B6838
:10340C00DB88B3F5007F0FD17B691A0A13469B004A
:10341C0013445B001A463B689B68B2FBF3F39BB208
:10342C0005339BB2FB6112E07B8C5B011A467B6916
:10343C00B3FBF2F213469B0013445B001A463B6845
:10344C009B68B2FBF3F39BB205339BB2FB61FB6948
:10345C00234AA2FB0323DB08FB61FB699BB203F04D
:10346C000103BB84BB8CFA69D31A5B08FB84BB8C4D
:10347C001B02BB84FB8C012B02D9FB8CFF2B03D9C9
:10348C000223FB840023BB843B68DA88BB8C134388
:10349C009AB2FB8C13439AB27B681A843B681A88E5
:1034AC003B6859883B6898883B689B8903439BB26F
:1034BC000B439BB213439AB27B8B13439BB243F4E3
:1034CC0000637B837B687A8B9A8300BF2C37BD4665
:1034DC005DF8047B704700BF0038024000127A0090
:1034EC00CDCCCCCC80B483B000AF78607B680022AC
:1034FC001A807B6800225A807B6800229A807B6845
:10350C000022DA807B6800221A817B6800225A81B3
:10351C007B6800229A817B680022DA817B68072213
:10352C001A8200BF0C37BD465DF8047B704780B42F
:10353C0083B000AF78607B6800221A807B68002221
:10354C005A807B6800229A807B680022DA807B6834
:10355C0002229A607B6800229A8100BF0C37BD461C
:10356C005DF8047B704780B483B000AF78600B4685
:10357C00FB70FB78002B08D07B681B889BB243F058
:10358C0040039AB27B681A8007E07B681B889BB269
:10359C0023F040039AB27B681A8000BF0C37BD46FB
:1035AC005DF8047B704780B483B000AF78600B4645
:1035BC00FB70FB78002B08D07B689B8B9BB243F491
:1035CC0080639AB27B689A8307E07B689B8B9BB283
:1035DC0023F480639AB27B689A8300BF0C37BD4694
:1035EC005DF8047B704780B483B000AF78600B4605
:1035FC007B807B681B889BB223F400639AB27B6848
:10360C001A807B681B889AB27B8813439AB27B68BA
:10361C001A8000BF0C37BD465DF8047B704780B440
:10362C0083B000AF78600B467B807B88B3F5804F0E
:10363C0008D17B681B889BB243F480439AB27B68A9
:10364C001A8007E07B681B889BB223F480439AB2F4
:10365C007B681A8000BF0C37BD465DF8047B704751
:10366C0080B483B000AF78600B467B807B884FF6CC
:10367C00FF62934208D07B681B889BB243F4807333
:10368C009AB27B681A8007E07B681B889BB223F494
:10369C0080739AB27B681A8000BF0C37BD465DF808
:1036AC00047B704780B483B000AF78600B46FB702E
:1036BC00FB78002B08D07B689B889BB243F00403FB
:1036CC009AB27B689A8007E07B689B889BB223F058
:1036DC0004039AB27B689A8000BF0C37BD465DF834
:1036EC00047B704780B483B000AF78600B46FB70EE
:1036FC00FB78002B08D07B689B889BB243F01003AF
:10370C009AB27B689A8007E07B689B889BB223F017
:10371C0010039AB27B689A8000BF0C37BD465DF8E7
:10372C00047B704780B485B000AF786039600023AB
:10373C00BB810023FB817B689B8B9BB223F47B6357
:10374C0023F00F039AB27B689A837B6802221A8457
:10375C007B689B8BBB813B681B88B3F5007F03D0D8
:10376C003B681B88002B03D14FF48073FB810BE06B
:10377C003B681B88B3F5407F04D03B681B88B3F5CE
:10378C00807F01D10023FB813B685A883B68998874
:10379C003B689B890B439BB213439AB2FB8913433F
:1037AC009AB2BB8913439BB243F40063BB817B6821
:1037BC00BA899A8300BF1437BD465DF8047B704705
:1037CC0080B483B000AF78607B689B899BB218464D
:1037DC000C37BD465DF8047B704780B483B000AFF6
:1037EC0078600B467B807B687A889A8100BF0C37A7
:1037FC00BD465DF8047B704780B483B000AF786041
:10380C000B46FB70FB78002B08D07B681B889BB2A7
:10381C0043F400539AB27B681A8007E07B681B88DC
:10382C009BB223F400539AB27B681A8000BF0C370A
:10383C00BD465DF8047B704780B483B000AF786000
:10384C007B681B889BB243F480539AB27B681A80C6
:10385C0000BF0C37BD465DF8047B704780B485B063
:10386C0000AF78600B46FB700023FB81FB78012BCB
:10387C0003D07B681B8BFB8102E07B689B8AFB81FE
:10388C00FB8918461437BD465DF8047B704780B43D
:10389C0083B000AF78607B681B8A9BB218460C37EC
:1038AC00BD465DF8047B704780B483B000AF786090
:1038BC000B467B8013467B707B78002B08D07B6893
:1038CC009B889AB27B8813439AB27B689A8009E0F2
:1038DC007B689B889AB27B88DB439BB213409AB27D
:1038EC007B689A8000BF0C37BD465DF8047B70473F
:1038FC0080B485B000AF78600B46FB701346BB708C
:10390C000023FB810023BB81FB781B09DBB2FB810D
:10391C00FB89012202FA03F3BB81BB78002B08D090
:10392C007B689B889AB2BB8913439AB27B689A8056
:10393C0009E07B689B889AB2BB89DB439BB213403E
:10394C009AB27B689A8000BF1437BD465DF8047B41
:10395C00704780B485B000AF78600B467B80002345
:10396C00FB737B681B899AB27B8813409BB2002B3C
:10397C0002D00123FB7301E00023FB73FB7B184691
:10398C001437BD465DF8047B704780B483B000AF3C
:10399C0078600B467B807B88DB439AB27B681A810C
:1039AC0000BF0C37BD465DF8047B704780B485B012
:1039BC0000AF78600B46FB700023FB730023BB81C8
:1039CC0000237B8100233B81FB7803F00F03012252
:1039DC0002FA03F3BB81FB781B09DBB27B817B8989
:1039EC00012202FA03F37B817B689B889AB27B8964
:1039FC0013403B817B681B899AB2BB8913409BB2F5
:103A0C00002B05D03B89002B02D00123FB7301E076
:103A1C000023FB73FB7B18461437BD465DF8047B13
:103A2C00704780B485B000AF78600B46FB70002304
:103A3C00FB81FB7803F00F03012202FA03F3FB81F5
:103A4C00FB89DB439AB27B681A8100BF1437BD46F1
:103A5C005DF8047B704700BF5C3E0008000000204E
:103A6C006004002060040020A8040020002301460C
:103A7C001A46184600F004B908B50021044600F0B7
:103A8C0033F9044B1868C36B03B19847204600F018
:103A9C0079F900BF1C3E000838B50A4C0A4D641B6E
:103AAC00A4100AD004F18043013B05EB8305013CD3
:103ABC0055F804399847002CF9D1BDE8384000F08E
:103ACC009BB900BF5C3E0008583E000870B50D4E17
:103ADC000D4D761BB61006D00024013455F8043B6E
:103AEC009847A642F9D1094E094D761B00F07EF994
:103AFC00B61006D00024013455F8043B9847A64272
:103B0C00F9D170BD503E0008503E0008583E0008E8
:103B1C00503E0008931E222B15D80A2A10B50B46CE
:103B2C0005D00C46194600F063F8204610BD00285D
:103B3C00F7DA2D2403F8014B40420C46194600F0ED
:103B4C0057F8204610BD002008707047FFF7E2BF01
:103B5C00F0B4860746D0541E002A3CD0CAB20346A5
:103B6C0002E014F1FF3436D303F8012B9D07F8D192
:103B7C00032C29D9CDB245EA05250F2C45EA05457C
:103B8C0033D9A4F11006360903F1200707EB061709
:103B9C0003F1100242E9045542E902551032BA42CF
:103BAC00F8D1721C14F00C0F03EB021204F00F0688
:103BBC0013D0331F23F003030433134442F8045B84
:103BCC009342FBD106F003042CB1C9B21C4403F898
:103BDC00011B9C42FBD1F0BC704734461346002CB1
:103BEC00F3D1F8E714460346C2E71A462646E0E747
:103BFC00F0B4DFF884C0164604460D46BCE80F004E
:103C0C008AB06F460FC7BCE80F000FC79CE80300D3
:103C1C00B31E47F8040B222B397028D86B1E9C4618
:103C2C00002701E00F4604460AA9B4FBF6F006FB98
:103C3C0010420A44A64212F8282C0CF8012F07F166
:103C4C000101EFD900226A54294467B111F8012D02
:103C5C005C785A70981C0133DA432A44401B3A446E
:103C6C0090420C70F2DB28460AB0F0BC7047002082
:103C7C0028700AB0F0BC7047203E0008FFF7B8BFB0
:103C8C00F0B4184C2568D5F8484114B365681F2D5D
:103C9C0024DC38B9AB1C0135656044F823100020D6
:103CAC00F0BC704704EB85060127C6F8882007FA9C
:103CBC0005F2D4F88871022847EA0207C4F8887123
:103CCC00C6F80831E6D1D4F88C311A43C4F88C21EB
:103CDC00E0E705F5A674C5F84841D7E74FF0FF308B
:103CEC00DEE700BF1C3E00082DE9F04F244B83B0EB
:103CFC00D3F800B001908A464FF00008DBF8486119
:103D0C0096B17468651E0FD4013406EB8404012748
:103D1C00BAF1000F0BD0D4F80031534507D0013D58
:103D2C006B1CA4F10404F3D103B0BDE8F08F7368ED
:103D3C002268013BAB420CBF7560C4F80080002ABE
:103D4C00EDD0D6F88811D6F8049007FA05FC1CEAD9
:103D5C00010F08D1904772684A45CFD1DBF8483142
:103D6C00B342DCD0CAE7D6F88C31D4F880101CEA08
:103D7C00030F02D101989047EDE708469047EAE718
:103D8C001C3E0008FEE700BF002103E00B4B5B5814
:103D9C00435004310A480B4B42189A42F6D30A4A54
:103DAC0002E0002342F8043B084B9A42F9D3FCF79B
:103DBC0005FEFFF78BFEFCF739FD70475C3E0008F3
:103DCC00000000206004002060040020A8040020F3
:103DDC00FEE70000024B13B10248FFF747BE7047E5
:103DEC0000000000A53A000800000000F8B500BF74
:103DFC00F8BC08BC9E467047F8B500BFF8BC08BCC0
:043E0C009E46704717
:103E1000583A2020593A20205A3A200038000020F1
:103E20003031323334353637383961626364656630
:103E30006768696A6B6C6D6E6F707172737475769A
:083E40007778797A0000000098
:083E4800ECC3FF7F0100000044
:083E5000E13D00081502000825
:043E5800ED01000870
:103E5C00000000000095BA0A0000000000000000FD
:103E6C000102030406070809000000000102030414
:103E7C0001020304060708090010000000000000FE
:103E8C003800002000000000000000002403002087
:103E9C008C030020F4030020000000000000000050
:103EAC000000000000000000000000000000000006
:103EBC0000000000000000000000000000000000F6
:103ECC0000000000000000000000000000000000E6
:103EDC0000000000000000000000000000000000D6
:103EEC0000000000000000000000000000000000C6
:103EFC0000000000000000000000000000000000B6
:103F0C0000000000000000000000000000000000A5
:103F1C000000000000000000000000000000000095
:103F2C000000000000000000000000000000000085
:103F3C0001000000000000000E33CDAB34126DE622
:103F4C00ECDE05000B00000000000000000000008B
:103F5C000000000000000000000000000000000055
:103F6C000000000000000000000000000000000045
:103F7C000000000000000000000000000000000035
:103F8C000000000000000000000000000000000025
:0400000508003D951D
:00000001FF
